{
  "_format": "hh-sol-artifact-1",
  "contractName": "Voting",
  "sourceName": "contracts/Voting.sol",
  "abi": [
    {
      "inputs": [
        {
          "internalType": "string[]",
          "name": "_candidates",
          "type": "string[]"
        }
      ],
      "stateMutability": "nonpayable",
      "type": "constructor"
    },
    {
      "inputs": [],
      "name": "admin",
      "outputs": [
        {
          "internalType": "address",
          "name": "",
          "type": "address"
        }
      ],
      "stateMutability": "view",
      "type": "function"
    },
    {
      "inputs": [
        {
          "internalType": "uint256",
          "name": "",
          "type": "uint256"
        }
      ],
      "name": "candidates",
      "outputs": [
        {
          "internalType": "string",
          "name": "",
          "type": "string"
        }
      ],
      "stateMutability": "view",
      "type": "function"
    },
    {
      "inputs": [
        {
          "internalType": "string",
          "name": "candidate",
          "type": "string"
        }
      ],
      "name": "getVotes",
      "outputs": [
        {
          "internalType": "uint256",
          "name": "",
          "type": "uint256"
        }
      ],
      "stateMutability": "view",
      "type": "function"
    },
    {
      "inputs": [
        {
          "internalType": "address",
          "name": "",
          "type": "address"
        }
      ],
      "name": "hasVoted",
      "outputs": [
        {
          "internalType": "bool",
          "name": "",
          "type": "bool"
        }
      ],
      "stateMutability": "view",
      "type": "function"
    },
    {
      "inputs": [
        {
          "internalType": "string",
          "name": "candidate",
          "type": "string"
        }
      ],
      "name": "vote",
      "outputs": [],
      "stateMutability": "nonpayable",
      "type": "function"
    },
    {
      "inputs": [
        {
          "internalType": "string",
          "name": "",
          "type": "string"
        }
      ],
      "name": "votes",
      "outputs": [
        {
          "internalType": "uint256",
          "name": "",
          "type": "uint256"
        }
      ],
      "stateMutability": "view",
      "type": "function"
    }
  ],
  "bytecode": "0x608060405234801561001057600080fd5b5060405161126d38038061126d833981810160405281019061003291906103c4565b336000806101000a81548173ffffffffffffffffffffffffffffffffffffffff021916908373ffffffffffffffffffffffffffffffffffffffff160217905550806003908051906020019061008892919061008f565b5050610700565b8280548282559060005260206000209081019282156100d7579160200282015b828111156100d65782518290816100c6919061062e565b50916020019190600101906100af565b5b5090506100e491906100e8565b5090565b5b8082111561010857600081816100ff919061010c565b506001016100e9565b5090565b50805461011890610447565b6000825580601f1061012a5750610149565b601f016020900490600052602060002090810190610148919061014c565b5b50565b5b8082111561016557600081600090555060010161014d565b5090565b6000604051905090565b600080fd5b600080fd5b600080fd5b6000601f19601f8301169050919050565b7f4e487b7100000000000000000000000000000000000000000000000000000000600052604160045260246000fd5b6101cb82610182565b810181811067ffffffffffffffff821117156101ea576101e9610193565b5b80604052505050565b60006101fd610169565b905061020982826101c2565b919050565b600067ffffffffffffffff82111561022957610228610193565b5b602082029050602081019050919050565b600080fd5b600080fd5b600067ffffffffffffffff82111561025f5761025e610193565b5b61026882610182565b9050602081019050919050565b60005b83811015610293578082015181840152602081019050610278565b60008484015250505050565b60006102b26102ad84610244565b6101f3565b9050828152602081018484840111156102ce576102cd61023f565b5b6102d9848285610275565b509392505050565b600082601f8301126102f6576102f561017d565b5b815161030684826020860161029f565b91505092915050565b600061032261031d8461020e565b6101f3565b905080838252602082019050602084028301858111156103455761034461023a565b5b835b8181101561038c57805167ffffffffffffffff81111561036a5761036961017d565b5b80860161037789826102e1565b85526020850194505050602081019050610347565b5050509392505050565b600082601f8301126103ab576103aa61017d565b5b81516103bb84826020860161030f565b91505092915050565b6000602082840312156103da576103d9610173565b5b600082015167ffffffffffffffff8111156103f8576103f7610178565b5b61040484828501610396565b91505092915050565b600081519050919050565b7f4e487b7100000000000000000000000000000000000000000000000000000000600052602260045260246000fd5b6000600282049050600182168061045f57607f821691505b60208210810361047257610471610418565b5b50919050565b60008190508160005260206000209050919050565b60006020601f8301049050919050565b600082821b905092915050565b6000600883026104da7fffffffffffffffffffffffffffffffffffffffffffffffffffffffffffffffff8261049d565b6104e4868361049d565b95508019841693508086168417925050509392505050565b6000819050919050565b6000819050919050565b600061052b610526610521846104fc565b610506565b6104fc565b9050919050565b6000819050919050565b61054583610510565b61055961055182610532565b8484546104aa565b825550505050565b600090565b61056e610561565b61057981848461053c565b505050565b5b8181101561059d57610592600082610566565b60018101905061057f565b5050565b601f8211156105e2576105b381610478565b6105bc8461048d565b810160208510156105cb578190505b6105df6105d78561048d565b83018261057e565b50505b505050565b600082821c905092915050565b6000610605600019846008026105e7565b1980831691505092915050565b600061061e83836105f4565b9150826002028217905092915050565b6106378261040d565b67ffffffffffffffff8111156106505761064f610193565b5b61065a8254610447565b6106658282856105a1565b600060209050601f8311600181146106985760008415610686578287015190505b6106908582610612565b8655506106f8565b601f1984166106a686610478565b60005b828110156106ce578489015182556001820191506020850194506020810190506106a9565b868310156106eb57848901516106e7601f8916826105f4565b8355505b6001600288020188555050505b505050505050565b610b5e8061070f6000396000f3fe608060405234801561001057600080fd5b50600436106100625760003560e01c806309eef43e146100675780633477ee2e14610097578063805265e5146100c7578063b99ef1fa146100f7578063f851a44014610127578063fc36e15b14610145575b600080fd5b610081600480360381019061007c91906104f3565b610161565b60405161008e919061053b565b60405180910390f35b6100b160048036038101906100ac919061058c565b610181565b6040516100be9190610649565b60405180910390f35b6100e160048036038101906100dc91906107a0565b61022d565b6040516100ee91906107f8565b60405180910390f35b610111600480360381019061010c91906107a0565b610255565b60405161011e91906107f8565b60405180910390f35b61012f610283565b60405161013c9190610822565b60405180910390f35b61015f600480360381019061015a91906107a0565b6102a7565b005b60016020528060005260406000206000915054906101000a900460ff1681565b6003818154811061019157600080fd5b9060005260206000200160009150905080546101ac9061086c565b80601f01602080910402602001604051908101604052809291908181526020018280546101d89061086c565b80156102255780601f106101fa57610100808354040283529160200191610225565b820191906000526020600020905b81548152906001019060200180831161020857829003601f168201915b505050505081565b600060028260405161023f91906108d9565b9081526020016040518091039020549050919050565b6002818051602081018201805184825260208301602085012081835280955050505050506000915090505481565b60008054906101000a900473ffffffffffffffffffffffffffffffffffffffff1681565b600160003373ffffffffffffffffffffffffffffffffffffffff1673ffffffffffffffffffffffffffffffffffffffff16815260200190815260200160002060009054906101000a900460ff1615610334576040517f08c379a000000000000000000000000000000000000000000000000000000000815260040161032b9061093c565b60405180910390fd5b61033d8161040a565b61037c576040517f08c379a0000000000000000000000000000000000000000000000000000000008152600401610373906109a8565b60405180910390fd5b60028160405161038c91906108d9565b908152602001604051809103902060008154809291906103ab906109f7565b919050555060018060003373ffffffffffffffffffffffffffffffffffffffff1673ffffffffffffffffffffffffffffffffffffffff16815260200190815260200160002060006101000a81548160ff02191690831515021790555050565b600080600090505b6003805490508110156104765782805190602001206003828154811061043b5761043a610a3f565b5b906000526020600020016040516104529190610b11565b60405180910390200361046957600191505061047c565b8080600101915050610412565b50600090505b919050565b6000604051905090565b600080fd5b600080fd5b600073ffffffffffffffffffffffffffffffffffffffff82169050919050565b60006104c082610495565b9050919050565b6104d0816104b5565b81146104db57600080fd5b50565b6000813590506104ed816104c7565b92915050565b6000602082840312156105095761050861048b565b5b6000610517848285016104de565b91505092915050565b60008115159050919050565b61053581610520565b82525050565b6000602082019050610550600083018461052c565b92915050565b6000819050919050565b61056981610556565b811461057457600080fd5b50565b60008135905061058681610560565b92915050565b6000602082840312156105a2576105a161048b565b5b60006105b084828501610577565b91505092915050565b600081519050919050565b600082825260208201905092915050565b60005b838110156105f35780820151818401526020810190506105d8565b60008484015250505050565b6000601f19601f8301169050919050565b600061061b826105b9565b61062581856105c4565b93506106358185602086016105d5565b61063e816105ff565b840191505092915050565b600060208201905081810360008301526106638184610610565b905092915050565b600080fd5b600080fd5b7f4e487b7100000000000000000000000000000000000000000000000000000000600052604160045260246000fd5b6106ad826105ff565b810181811067ffffffffffffffff821117156106cc576106cb610675565b5b80604052505050565b60006106df610481565b90506106eb82826106a4565b919050565b600067ffffffffffffffff82111561070b5761070a610675565b5b610714826105ff565b9050602081019050919050565b82818337600083830152505050565b600061074361073e846106f0565b6106d5565b90508281526020810184848401111561075f5761075e610670565b5b61076a848285610721565b509392505050565b600082601f8301126107875761078661066b565b5b8135610797848260208601610730565b91505092915050565b6000602082840312156107b6576107b561048b565b5b600082013567ffffffffffffffff8111156107d4576107d3610490565b5b6107e084828501610772565b91505092915050565b6107f281610556565b82525050565b600060208201905061080d60008301846107e9565b92915050565b61081c816104b5565b82525050565b60006020820190506108376000830184610813565b92915050565b7f4e487b7100000000000000000000000000000000000000000000000000000000600052602260045260246000fd5b6000600282049050600182168061088457607f821691505b6020821081036108975761089661083d565b5b50919050565b600081905092915050565b60006108b3826105b9565b6108bd818561089d565b93506108cd8185602086016105d5565b80840191505092915050565b60006108e582846108a8565b915081905092915050565b7f416c726561647920766f74656421000000000000000000000000000000000000600082015250565b6000610926600e836105c4565b9150610931826108f0565b602082019050919050565b6000602082019050818103600083015261095581610919565b9050919050565b7f496e76616c69642063616e646964617465210000000000000000000000000000600082015250565b60006109926012836105c4565b915061099d8261095c565b602082019050919050565b600060208201905081810360008301526109c181610985565b9050919050565b7f4e487b7100000000000000000000000000000000000000000000000000000000600052601160045260246000fd5b6000610a0282610556565b91507fffffffffffffffffffffffffffffffffffffffffffffffffffffffffffffffff8203610a3457610a336109c8565b5b600182019050919050565b7f4e487b7100000000000000000000000000000000000000000000000000000000600052603260045260246000fd5b600081905092915050565b60008190508160005260206000209050919050565b60008154610a9b8161086c565b610aa58186610a6e565b94506001821660008114610ac05760018114610ad557610b08565b60ff1983168652811515820286019350610b08565b610ade85610a79565b60005b83811015610b0057815481890152600182019150602081019050610ae1565b838801955050505b50505092915050565b6000610b1d8284610a8e565b91508190509291505056fea2646970667358221220cc2735f9c0e1dff8111614bb42b0bc02c54921e55472a16a3c58c107bf77bd1b64736f6c634300081c0033",
  "linkReferences": {},
  "deployedLinkReferences": {}
}